{
    "contractName": "RockPaperScissors",
    "abi": [
        {
            "anonymous": false,
            "inputs": [
                {
                    "indexed": true,
                    "internalType": "address",
                    "name": "previousOwner",
                    "type": "address"
                },
                {
                    "indexed": true,
                    "internalType": "address",
                    "name": "newOwner",
                    "type": "address"
                }
            ],
            "name": "OwnershipTransferred",
            "type": "event"
        },
        {
            "inputs": [],
            "name": "enroll",
            "outputs": [],
            "stateMutability": "payable",
            "type": "function"
        },
        {
            "inputs": [
                {
                    "internalType": "uint256",
                    "name": "",
                    "type": "uint256"
                }
            ],
            "name": "games",
            "outputs": [
                {
                    "components": [
                        {
                            "internalType": "address",
                            "name": "player",
                            "type": "address"
                        },
                        {
                            "internalType": "uint256",
                            "name": "bet",
                            "type": "uint256"
                        },
                        {
                            "internalType": "enum RockPaperScissors.Weapon",
                            "name": "weapon",
                            "type": "uint8"
                        }
                    ],
                    "internalType": "struct RockPaperScissors.PlayerInGame",
                    "name": "player1",
                    "type": "tuple"
                },
                {
                    "components": [
                        {
                            "internalType": "address",
                            "name": "player",
                            "type": "address"
                        },
                        {
                            "internalType": "uint256",
                            "name": "bet",
                            "type": "uint256"
                        },
                        {
                            "internalType": "enum RockPaperScissors.Weapon",
                            "name": "weapon",
                            "type": "uint8"
                        }
                    ],
                    "internalType": "struct RockPaperScissors.PlayerInGame",
                    "name": "player2",
                    "type": "tuple"
                }
            ],
            "stateMutability": "view",
            "type": "function"
        },
        {
            "inputs": [],
            "name": "getAmount",
            "outputs": [
                {
                    "internalType": "uint256",
                    "name": "",
                    "type": "uint256"
                }
            ],
            "stateMutability": "view",
            "type": "function"
        },
        {
            "inputs": [],
            "name": "getContractBalance",
            "outputs": [
                {
                    "internalType": "uint256",
                    "name": "",
                    "type": "uint256"
                }
            ],
            "stateMutability": "view",
            "type": "function"
        },
        {
            "inputs": [],
            "name": "isEnrolled",
            "outputs": [
                {
                    "internalType": "bool",
                    "name": "",
                    "type": "bool"
                }
            ],
            "stateMutability": "view",
            "type": "function"
        },
        {
            "inputs": [],
            "name": "owner",
            "outputs": [
                {
                    "internalType": "address",
                    "name": "",
                    "type": "address"
                }
            ],
            "stateMutability": "view",
            "type": "function"
        },
        {
            "inputs": [
                {
                    "internalType": "enum RockPaperScissors.Weapon",
                    "name": "weapon",
                    "type": "uint8"
                }
            ],
            "name": "play",
            "outputs": [
                {
                    "internalType": "bool",
                    "name": "",
                    "type": "bool"
                }
            ],
            "stateMutability": "payable",
            "type": "function"
        },
        {
            "inputs": [
                {
                    "internalType": "address",
                    "name": "",
                    "type": "address"
                }
            ],
            "name": "playersEnrolled",
            "outputs": [
                {
                    "internalType": "address",
                    "name": "player",
                    "type": "address"
                },
                {
                    "internalType": "uint256",
                    "name": "amount",
                    "type": "uint256"
                },
                {
                    "internalType": "bool",
                    "name": "enrolled",
                    "type": "bool"
                }
            ],
            "stateMutability": "view",
            "type": "function"
        },
        {
            "inputs": [],
            "name": "redeemAmount",
            "outputs": [],
            "stateMutability": "payable",
            "type": "function"
        },
        {
            "inputs": [
                {
                    "internalType": "address",
                    "name": "newOwner",
                    "type": "address"
                }
            ],
            "name": "transferOwnership",
            "outputs": [],
            "stateMutability": "nonpayable",
            "type": "function"
        }
    ],
    "bytecode": "608060405266354a6ba7a180006003556658d15e1762800060045534801561002657600080fd5b50600080546001600160a01b03191633179055610cf0806100486000396000f3fe6080604052600436106100915760003560e01c80636f9fb98a116100595780636f9fb98a146101be5780638da5cb5b146101e1578063d321fe2914610219578063e65f2a7e1461023f578063f2fde38b1461024757600080fd5b80630373c90914610096578063117a5b90146100a057806326092a77146100d757806353a04b05146101485780635e9ad6b41461016b575b600080fd5b61009e610267565b005b3480156100ac57600080fd5b506100c06100bb366004610b8f565b6102ff565b6040516100ce929190610bed565b60405180910390f35b3480156100e357600080fd5b506101216100f2366004610b45565b60016020819052600091825260409091208054918101546002909101546001600160a01b039092169160ff1683565b604080516001600160a01b03909416845260208401929092521515908201526060016100ce565b61015b610156366004610b6e565b6103e1565b60405190151581526020016100ce565b34801561017757600080fd5b5033600090815260016020818152604092839020835160608101855281546001600160a01b0316815292810154918301919091526002015460ff161515910181905261015b565b3480156101ca57600080fd5b506101d3610520565b6040519081526020016100ce565b3480156101ed57600080fd5b50600054610201906001600160a01b031681565b6040516001600160a01b0390911681526020016100ce565b34801561022557600080fd5b5033600090815260016020819052604090912001546101d3565b61009e61053e565b34801561025357600080fd5b5061009e610262366004610b45565b61058d565b33600090815260016020818152604092839020835160608101855281546001600160a01b0316815292810154918301919091526002015460ff161515918101829052906102b357600080fd5b33600081815260016020819052604080832091820154905191939281156108fc029290818181858888f193505050501580156102f3573d6000803e3d6000fd5b50600060019091015550565b6002818154811061030f57600080fd5b600091825260209182902060408051606081018252600690930290910180546001600160a01b03168352600181015493830193909352600280840154939450919284929184019160ff9091169081111561036b5761036b610c8e565b600281111561037c5761037c610c8e565b905250604080516060810182526003840180546001600160a01b03168252600485015460208301526005850154939493919290919083019060ff1660028111156103c8576103c8610c8e565b60028111156103d9576103d9610c8e565b905250905082565b336000908152600160208181526040808420815160608101835281546001600160a01b03168152938101549284019290925260029091015460ff16151590820181905261042d57600080fd5b3360009081526001602081905260409091206004549181015490911161046e576004548160010160008282546104639190610c61565b9091555061047c9050565b600454341461047c57600080fd5b600254806104985761048d85610612565b60009350505061051a565b600060026104a7600184610c61565b815481106104b7576104b7610ca4565b6000918252602090912060069091020160038101549091506001600160a01b03166105095780546001600160a01b03163314156104f357600080fd5b6104fd868261077f565b6001945050505061051a565b61051286610612565b600094505050505b50919050565b600080546001600160a01b0316331461053857600080fd5b50303190565b600354341461054c57600080fd5b336000908152600160205260409020600281015460ff161561056d57600080fd5b80546001600160a01b03191633178155600201805460ff19166001179055565b6000546001600160a01b031633146105a457600080fd5b6001600160a01b0381166105b757600080fd5b600080546040516001600160a01b03808516939216917f8be0079c531659141344cd1fd0a4f28419497f9722a3daafe3b4186f6b6457e091a3600080546001600160a01b0319166001600160a01b0392909216919091179055565b61061a610af6565b6040805160608101825233815234602082015290810183600281111561064257610642610c8e565b90528152600280546001818101835560008390528351805160069093027f405787fa12a823e0f2b7631cc41b3ba8828b3321ca811111fa75cd3aa3bb5ace810180546001600160a01b039095166001600160a01b031990951694909417845560208201517f405787fa12a823e0f2b7631cc41b3ba8828b3321ca811111fa75cd3aa3bb5acf82015560408201517f405787fa12a823e0f2b7631cc41b3ba8828b3321ca811111fa75cd3aa3bb5ad0909101805487969394869460ff1990921691849081111561071357610713610c8e565b0217905550505060208281015180516003840180546001600160a01b0319166001600160a01b03909216919091178155918101516004840155604081015160058401805492939260ff1916600183600281111561077257610772610c8e565b0217905550505050505050565b604080516060810182523381523460208201529081018360028111156107a7576107a7610c8e565b905280516003830180546001600160a01b0319166001600160a01b0390921691909117815560208201516004840155604082015160058401805460ff191660018360028111156107f9576107f9610c8e565b0217905550506040805160a08101825283546001600160a01b031691810191825260018401546060820152600280850154600094506108cf93869284928491608085019160ff169081111561085057610850610c8e565b600281111561086157610861610c8e565b9052508152604080516060810182526003840180546001600160a01b0316825260048501546020838101919091526005860154940193919290919083019060ff1660028111156108b3576108b3610c8e565b60028111156108c4576108c4610c8e565b9052509052506109f0565b600483015460018401549192506000916108f3916108ec91610c08565b605a610a12565b905060008213156109395782546001600160a01b03166000908152600160208190526040822090810180549192849261092d908490610c08565b909155506109ea915050565b60008212156109745760038301546001600160a01b03166000908152600160208190526040822090810180549192849261092d908490610c08565b6000610981826032610a12565b84546001600160a01b03908116600090815260016020819052604080832060038a015490941683528220908301805494955092939092859290916109c6908490610c08565b92505081905550828160010160008282546109e19190610c08565b90915550505050505b50505050565b6000610a0c826000015160400151836020015160400151610a31565b92915050565b60006064610a208385610c42565b610a2a9190610c20565b9392505050565b6000816002811115610a4557610a45610c8e565b836002811115610a5757610a57610c8e565b1415610a6557506000610a0c565b6000836002811115610a7957610a79610c8e565b1415610aab5760015b826002811115610a9457610a94610c8e565b1415610aa35750600019610a0c565b506001610a0c565b6001836002811115610abf57610abf610c8e565b1415610acc576002610a82565b6002836002811115610ae057610ae0610c8e565b1415610aed576000610a82565b50600092915050565b6040805160a08101825260009181018281526060820183905260808201929092529081908152602001610b4060408051606081018252600080825260208201819052909182015290565b905290565b600060208284031215610b5757600080fd5b81356001600160a01b0381168114610a2a57600080fd5b600060208284031215610b8057600080fd5b813560038110610a2a57600080fd5b600060208284031215610ba157600080fd5b5035919050565b80516001600160a01b0316825260208082015190830152604081015160038110610be257634e487b7160e01b600052602160045260246000fd5b806040840152505050565b60c08101610bfb8285610ba8565b610a2a6060830184610ba8565b60008219821115610c1b57610c1b610c78565b500190565b600082610c3d57634e487b7160e01b600052601260045260246000fd5b500490565b6000816000190483118215151615610c5c57610c5c610c78565b500290565b600082821015610c7357610c73610c78565b500390565b634e487b7160e01b600052601160045260246000fd5b634e487b7160e01b600052602160045260246000fd5b634e487b7160e01b600052603260045260246000fdfea2646970667358221220cef0486bbd838595de63785a353e056a1ea73c1a748ee5a7922c92946e33536564736f6c63430008070033",
    "sourcePath": "/Users/usuario/Desktop/Personal/RockPaperScissors/contracts/RockPaperScissors.sol",
    "compiler": {
        "name": "solc",
        "version": "0.8.7+commit.e28d00a7"
    },
    "functionHashes": {
        "enroll()": "e65f2a7e",
        "games(uint256)": "117a5b90",
        "getAmount()": "d321fe29",
        "getContractBalance()": "6f9fb98a",
        "isEnrolled()": "5e9ad6b4",
        "owner()": "8da5cb5b",
        "play(uint8)": "53a04b05",
        "playersEnrolled(address)": "26092a77",
        "redeemAmount()": "0373c909",
        "transferOwnership(address)": "f2fde38b"
    },
    "gasEstimates": {
        "creation": {
            "codeDepositCost": "662400",
            "executionCost": "69143",
            "totalCost": "731543"
        },
        "external": {
            "enroll()": "52970",
            "games(uint256)": "infinite",
            "getAmount()": "2416",
            "getContractBalance()": "4951",
            "isEnrolled()": "6787",
            "owner()": "2359",
            "play(uint8)": "infinite",
            "playersEnrolled(address)": "6864",
            "redeemAmount()": "infinite",
            "transferOwnership(address)": "30453"
        },
        "internal": {
            "finishGame(enum RockPaperScissors.Weapon,struct RockPaperScissors.Game storage pointer)": "infinite",
            "newGame(enum RockPaperScissors.Weapon)": "infinite",
            "percentage(uint256,uint256)": "179",
            "whoWin(enum RockPaperScissors.Weapon,enum RockPaperScissors.Weapon)": "338",
            "whoWin(struct RockPaperScissors.Game memory)": "infinite"
        }
    }
}