{
  "contractName": "RockPaperScissors",
  "abi": [
    {
      "anonymous": false,
      "inputs": [
        {
          "indexed": true,
          "internalType": "address",
          "name": "previousOwner",
          "type": "address"
        },
        {
          "indexed": true,
          "internalType": "address",
          "name": "newOwner",
          "type": "address"
        }
      ],
      "name": "OwnershipTransferred",
      "type": "event"
    },
    {
      "inputs": [
        {
          "internalType": "uint256",
          "name": "",
          "type": "uint256"
        }
      ],
      "name": "games",
      "outputs": [
        {
          "components": [
            {
              "internalType": "address",
              "name": "player",
              "type": "address"
            },
            {
              "internalType": "uint256",
              "name": "bet",
              "type": "uint256"
            },
            {
              "internalType": "enum RockPaperScissors.Weapon",
              "name": "weapon",
              "type": "uint8"
            }
          ],
          "internalType": "struct RockPaperScissors.PlayerInGame",
          "name": "player1",
          "type": "tuple"
        },
        {
          "components": [
            {
              "internalType": "address",
              "name": "player",
              "type": "address"
            },
            {
              "internalType": "uint256",
              "name": "bet",
              "type": "uint256"
            },
            {
              "internalType": "enum RockPaperScissors.Weapon",
              "name": "weapon",
              "type": "uint8"
            }
          ],
          "internalType": "struct RockPaperScissors.PlayerInGame",
          "name": "player2",
          "type": "tuple"
        }
      ],
      "stateMutability": "view",
      "type": "function"
    },
    {
      "inputs": [],
      "name": "owner",
      "outputs": [
        {
          "internalType": "address",
          "name": "",
          "type": "address"
        }
      ],
      "stateMutability": "view",
      "type": "function"
    },
    {
      "inputs": [
        {
          "internalType": "address",
          "name": "",
          "type": "address"
        }
      ],
      "name": "playersEnrolled",
      "outputs": [
        {
          "internalType": "address",
          "name": "player",
          "type": "address"
        },
        {
          "internalType": "uint256",
          "name": "amount",
          "type": "uint256"
        },
        {
          "internalType": "bool",
          "name": "enrolled",
          "type": "bool"
        }
      ],
      "stateMutability": "view",
      "type": "function"
    },
    {
      "inputs": [
        {
          "internalType": "address",
          "name": "newOwner",
          "type": "address"
        }
      ],
      "name": "transferOwnership",
      "outputs": [],
      "stateMutability": "nonpayable",
      "type": "function"
    },
    {
      "inputs": [],
      "name": "enroll",
      "outputs": [],
      "stateMutability": "payable",
      "type": "function"
    },
    {
      "inputs": [
        {
          "internalType": "enum RockPaperScissors.Weapon",
          "name": "weapon",
          "type": "uint8"
        }
      ],
      "name": "play",
      "outputs": [
        {
          "internalType": "bool",
          "name": "",
          "type": "bool"
        }
      ],
      "stateMutability": "payable",
      "type": "function"
    },
    {
      "inputs": [],
      "name": "getAmount",
      "outputs": [
        {
          "internalType": "uint256",
          "name": "",
          "type": "uint256"
        }
      ],
      "stateMutability": "view",
      "type": "function"
    },
    {
      "inputs": [],
      "name": "redeemAmount",
      "outputs": [],
      "stateMutability": "payable",
      "type": "function"
    },
    {
      "inputs": [],
      "name": "isEnrolled",
      "outputs": [
        {
          "internalType": "bool",
          "name": "",
          "type": "bool"
        }
      ],
      "stateMutability": "view",
      "type": "function"
    },
    {
      "inputs": [],
      "name": "getContractBalance",
      "outputs": [
        {
          "internalType": "uint256",
          "name": "",
          "type": "uint256"
        }
      ],
      "stateMutability": "view",
      "type": "function"
    }
  ],
  "bytecode": "0x608060405266354a6ba7a180006003556658d15e1762800060045534801561002657600080fd5b50336000806101000a81548173ffffffffffffffffffffffffffffffffffffffff021916908373ffffffffffffffffffffffffffffffffffffffff16021790555061199c806100766000396000f3fe6080604052600436106100915760003560e01c80636f9fb98a116100595780636f9fb98a146101785780638da5cb5b146101a3578063d321fe29146101ce578063e65f2a7e146101f9578063f2fde38b1461020357610091565b80630373c90914610096578063117a5b90146100a057806326092a77146100de57806353a04b051461011d5780635e9ad6b41461014d575b600080fd5b61009e61022c565b005b3480156100ac57600080fd5b506100c760048036038101906100c29190611557565b61039f565b6040516100d592919061168d565b60405180910390f35b3480156100ea57600080fd5b50610105600480360381019061010091906114fd565b61051d565b6040516101149392919061163b565b60405180910390f35b6101376004803603810190610132919061152a565b610574565b6040516101449190611672565b60405180910390f35b34801561015957600080fd5b5061016261080f565b60405161016f9190611672565b60405180910390f35b34801561018457600080fd5b5061018d6108e4565b60405161019a91906116b6565b60405180910390f35b3480156101af57600080fd5b506101b8610962565b6040516101c59190611620565b60405180910390f35b3480156101da57600080fd5b506101e3610986565b6040516101f091906116b6565b60405180910390f35b6102016109d0565b005b34801561020f57600080fd5b5061022a600480360381019061022591906114fd565b610aa0565b005b6000600160003373ffffffffffffffffffffffffffffffffffffffff1673ffffffffffffffffffffffffffffffffffffffff1681526020019081526020016000206040518060600160405290816000820160009054906101000a900473ffffffffffffffffffffffffffffffffffffffff1673ffffffffffffffffffffffffffffffffffffffff1673ffffffffffffffffffffffffffffffffffffffff168152602001600182015481526020016002820160009054906101000a900460ff1615151515815250509050806040015161030357600080fd5b6000600160003373ffffffffffffffffffffffffffffffffffffffff1673ffffffffffffffffffffffffffffffffffffffff16815260200190815260200160002090503373ffffffffffffffffffffffffffffffffffffffff166108fc82600101549081150290604051600060405180830381858888f19350505050158015610390573d6000803e3d6000fd5b50600081600101819055505050565b600281815481106103af57600080fd5b9060005260206000209060060201600091509050806000016040518060600160405290816000820160009054906101000a900473ffffffffffffffffffffffffffffffffffffffff1673ffffffffffffffffffffffffffffffffffffffff1673ffffffffffffffffffffffffffffffffffffffff168152602001600182015481526020016002820160009054906101000a900460ff166002811115610457576104566118b1565b5b6002811115610469576104686118b1565b5b8152505090806003016040518060600160405290816000820160009054906101000a900473ffffffffffffffffffffffffffffffffffffffff1673ffffffffffffffffffffffffffffffffffffffff1673ffffffffffffffffffffffffffffffffffffffff168152602001600182015481526020016002820160009054906101000a900460ff166002811115610502576105016118b1565b5b6002811115610514576105136118b1565b5b81525050905082565b60016020528060005260406000206000915090508060000160009054906101000a900473ffffffffffffffffffffffffffffffffffffffff16908060010154908060020160009054906101000a900460ff16905083565b600080600160003373ffffffffffffffffffffffffffffffffffffffff1673ffffffffffffffffffffffffffffffffffffffff1681526020019081526020016000206040518060600160405290816000820160009054906101000a900473ffffffffffffffffffffffffffffffffffffffff1673ffffffffffffffffffffffffffffffffffffffff1673ffffffffffffffffffffffffffffffffffffffff168152602001600182015481526020016002820160009054906101000a900460ff1615151515815250509050806040015161064c57600080fd5b6000600160003373ffffffffffffffffffffffffffffffffffffffff1673ffffffffffffffffffffffffffffffffffffffff16815260200190815260200160002090506004548160010154106106be576004548160010160008282546106b291906117b2565b925050819055506106cd565b60045434146106cc57600080fd5b5b6000600280549050905060008114156106f4576106e985610bef565b600093505050610809565b6000600260018361070591906117b2565b81548110610716576107156118e0565b5b90600052602060002090600602019050600073ffffffffffffffffffffffffffffffffffffffff168160030160000160009054906101000a900473ffffffffffffffffffffffffffffffffffffffff1673ffffffffffffffffffffffffffffffffffffffff1614156107f8578060000160000160009054906101000a900473ffffffffffffffffffffffffffffffffffffffff1673ffffffffffffffffffffffffffffffffffffffff163373ffffffffffffffffffffffffffffffffffffffff1614156107e257600080fd5b6107ec8682610d8c565b60019450505050610809565b61080186610bef565b600094505050505b50919050565b600080600160003373ffffffffffffffffffffffffffffffffffffffff1673ffffffffffffffffffffffffffffffffffffffff1681526020019081526020016000206040518060600160405290816000820160009054906101000a900473ffffffffffffffffffffffffffffffffffffffff1673ffffffffffffffffffffffffffffffffffffffff1673ffffffffffffffffffffffffffffffffffffffff168152602001600182015481526020016002820160009054906101000a900460ff1615151515815250509050806040015191505090565b60008060009054906101000a900473ffffffffffffffffffffffffffffffffffffffff1673ffffffffffffffffffffffffffffffffffffffff163373ffffffffffffffffffffffffffffffffffffffff161461093f57600080fd5b60003090508073ffffffffffffffffffffffffffffffffffffffff163191505090565b60008054906101000a900473ffffffffffffffffffffffffffffffffffffffff1681565b6000600160003373ffffffffffffffffffffffffffffffffffffffff1673ffffffffffffffffffffffffffffffffffffffff16815260200190815260200160002060010154905090565b60035434146109de57600080fd5b6000600160003373ffffffffffffffffffffffffffffffffffffffff1673ffffffffffffffffffffffffffffffffffffffff16815260200190815260200160002090508060020160009054906101000a900460ff1615610a3d57600080fd5b338160000160006101000a81548173ffffffffffffffffffffffffffffffffffffffff021916908373ffffffffffffffffffffffffffffffffffffffff16021790555060018160020160006101000a81548160ff02191690831515021790555050565b60008054906101000a900473ffffffffffffffffffffffffffffffffffffffff1673ffffffffffffffffffffffffffffffffffffffff163373ffffffffffffffffffffffffffffffffffffffff1614610af857600080fd5b600073ffffffffffffffffffffffffffffffffffffffff168173ffffffffffffffffffffffffffffffffffffffff161415610b3257600080fd5b8073ffffffffffffffffffffffffffffffffffffffff1660008054906101000a900473ffffffffffffffffffffffffffffffffffffffff1673ffffffffffffffffffffffffffffffffffffffff167f8be0079c531659141344cd1fd0a4f28419497f9722a3daafe3b4186f6b6457e060405160405180910390a3806000806101000a81548173ffffffffffffffffffffffffffffffffffffffff021916908373ffffffffffffffffffffffffffffffffffffffff16021790555050565b610bf761144f565b60405180606001604052803373ffffffffffffffffffffffffffffffffffffffff168152602001348152602001836002811115610c3757610c366118b1565b5b8152508160000181905250600281908060018154018082558091505060019003906000526020600020906006020160009091909190915060008201518160000160008201518160000160006101000a81548173ffffffffffffffffffffffffffffffffffffffff021916908373ffffffffffffffffffffffffffffffffffffffff1602179055506020820151816001015560408201518160020160006101000a81548160ff02191690836002811115610cf357610cf26118b1565b5b0217905550505060208201518160030160008201518160000160006101000a81548173ffffffffffffffffffffffffffffffffffffffff021916908373ffffffffffffffffffffffffffffffffffffffff1602179055506020820151816001015560408201518160020160006101000a81548160ff02191690836002811115610d7f57610d7e6118b1565b5b0217905550505050505050565b60405180606001604052803373ffffffffffffffffffffffffffffffffffffffff168152602001348152602001836002811115610dcc57610dcb6118b1565b5b8152508160030160008201518160000160006101000a81548173ffffffffffffffffffffffffffffffffffffffff021916908373ffffffffffffffffffffffffffffffffffffffff1602179055506020820151816001015560408201518160020160006101000a81548160ff02191690836002811115610e4f57610e4e6118b1565b5b02179055509050506000610fcb82604051806040016040529081600082016040518060600160405290816000820160009054906101000a900473ffffffffffffffffffffffffffffffffffffffff1673ffffffffffffffffffffffffffffffffffffffff1673ffffffffffffffffffffffffffffffffffffffff168152602001600182015481526020016002820160009054906101000a900460ff166002811115610efd57610efc6118b1565b5b6002811115610f0f57610f0e6118b1565b5b815250508152602001600382016040518060600160405290816000820160009054906101000a900473ffffffffffffffffffffffffffffffffffffffff1673ffffffffffffffffffffffffffffffffffffffff1673ffffffffffffffffffffffffffffffffffffffff168152602001600182015481526020016002820160009054906101000a900460ff166002811115610fac57610fab6118b1565b5b6002811115610fbe57610fbd6118b1565b5b8152505081525050611229565b90506000610ff383600301600101548460000160010154610fec91906116d1565b605a61124c565b905060008213156110835780600160008560000160000160009054906101000a900473ffffffffffffffffffffffffffffffffffffffff1673ffffffffffffffffffffffffffffffffffffffff1673ffffffffffffffffffffffffffffffffffffffff168152602001908152602001600020600101600082825461107791906116d1565b92505081905550611223565b60008212156111115780600160008560030160000160009054906101000a900473ffffffffffffffffffffffffffffffffffffffff1673ffffffffffffffffffffffffffffffffffffffff1673ffffffffffffffffffffffffffffffffffffffff168152602001908152602001600020600101600082825461110591906116d1565b92505081905550611222565b600061111e82603261124c565b905080600160008660000160000160009054906101000a900473ffffffffffffffffffffffffffffffffffffffff1673ffffffffffffffffffffffffffffffffffffffff1673ffffffffffffffffffffffffffffffffffffffff168152602001908152602001600020600101600082825461119991906116d1565b9250508190555080600160008660030160000160009054906101000a900473ffffffffffffffffffffffffffffffffffffffff1673ffffffffffffffffffffffffffffffffffffffff1673ffffffffffffffffffffffffffffffffffffffff168152602001908152602001600020600101600082825461121991906116d1565b92505081905550505b5b50505050565b600061124582600001516040015183602001516040015161126e565b9050919050565b60006064828461125c9190611758565b6112669190611727565b905092915050565b6000816002811115611283576112826118b1565b5b836002811115611296576112956118b1565b5b14156112a55760009050611449565b600060028111156112b9576112b86118b1565b5b8360028111156112cc576112cb6118b1565b5b141561133057600160028111156112e6576112e56118b1565b5b8260028111156112f9576112f86118b1565b5b1415611327577fffffffffffffffffffffffffffffffffffffffffffffffffffffffffffffffff9050611449565b60019050611449565b60016002811115611344576113436118b1565b5b836002811115611357576113566118b1565b5b14156113ba576002808111156113705761136f6118b1565b5b826002811115611383576113826118b1565b5b14156113b1577fffffffffffffffffffffffffffffffffffffffffffffffffffffffffffffffff9050611449565b60019050611449565b6002808111156113cd576113cc6118b1565b5b8360028111156113e0576113df6118b1565b5b141561144457600060028111156113fa576113f96118b1565b5b82600281111561140d5761140c6118b1565b5b141561143b577fffffffffffffffffffffffffffffffffffffffffffffffffffffffffffffffff9050611449565b60019050611449565b600090505b92915050565b6040518060400160405280611462611475565b815260200161146f611475565b81525090565b6040518060600160405280600073ffffffffffffffffffffffffffffffffffffffff16815260200160008152602001600060028111156114b8576114b76118b1565b5b81525090565b6000813590506114cd81611928565b92915050565b6000813590506114e28161193f565b92915050565b6000813590506114f78161194f565b92915050565b6000602082840312156115135761151261190f565b5b6000611521848285016114be565b91505092915050565b6000602082840312156115405761153f61190f565b5b600061154e848285016114d3565b91505092915050565b60006020828403121561156d5761156c61190f565b5b600061157b848285016114e8565b91505092915050565b61158d816117e6565b82525050565b61159c816117e6565b82525050565b6115ab816117f8565b82525050565b6115ba81611841565b82525050565b6060820160008201516115d66000850182611584565b5060208201516115e96020850182611602565b5060408201516115fc60408501826115b1565b50505050565b61160b81611837565b82525050565b61161a81611837565b82525050565b60006020820190506116356000830184611593565b92915050565b60006060820190506116506000830186611593565b61165d6020830185611611565b61166a60408301846115a2565b949350505050565b600060208201905061168760008301846115a2565b92915050565b600060c0820190506116a260008301856115c0565b6116af60608301846115c0565b9392505050565b60006020820190506116cb6000830184611611565b92915050565b60006116dc82611837565b91506116e783611837565b9250827fffffffffffffffffffffffffffffffffffffffffffffffffffffffffffffffff0382111561171c5761171b611853565b5b828201905092915050565b600061173282611837565b915061173d83611837565b92508261174d5761174c611882565b5b828204905092915050565b600061176382611837565b915061176e83611837565b9250817fffffffffffffffffffffffffffffffffffffffffffffffffffffffffffffffff04831182151516156117a7576117a6611853565b5b828202905092915050565b60006117bd82611837565b91506117c883611837565b9250828210156117db576117da611853565b5b828203905092915050565b60006117f182611817565b9050919050565b60008115159050919050565b600081905061181282611914565b919050565b600073ffffffffffffffffffffffffffffffffffffffff82169050919050565b6000819050919050565b600061184c82611804565b9050919050565b7f4e487b7100000000000000000000000000000000000000000000000000000000600052601160045260246000fd5b7f4e487b7100000000000000000000000000000000000000000000000000000000600052601260045260246000fd5b7f4e487b7100000000000000000000000000000000000000000000000000000000600052602160045260246000fd5b7f4e487b7100000000000000000000000000000000000000000000000000000000600052603260045260246000fd5b600080fd5b60038110611925576119246118b1565b5b50565b611931816117e6565b811461193c57600080fd5b50565b6003811061194c57600080fd5b50565b61195881611837565b811461196357600080fd5b5056fea2646970667358221220a48457205db9354a4aab1b4b091bbff55c4e0c3be4e309adfc9e72940950ff0464736f6c63430008070033",
  "immutableReferences": {},
  "source": "// SPDX-License-Identifier: MIT\npragma solidity >=0.4.22 <0.9.0;\n\nimport './Ownable.sol';\n\ncontract RockPaperScissors is Ownable {\n\n    enum Weapon{ ROCK, PAPER, SCISSORS }\n\n    struct Player {\n        address player;\n        uint amount;\n        bool enrolled;\n    }\n\n    struct PlayerInGame {\n        address player;\n        uint bet;\n        Weapon weapon;\n    }\n\n    struct Game {\n        PlayerInGame player1;\n        PlayerInGame player2;\n    }\n\n    mapping(address => Player) public playersEnrolled;\n    Game[] public games;\n\n    uint paymentToEnroll = 0.015 ether;\n    uint paymentToPlay = 0.025 ether;\n\n    modifier enrolled() {\n        Player memory player = playersEnrolled[msg.sender];\n        require(player.enrolled);\n        _;\n    }\n\n    function enroll() public payable {\n        require(msg.value == paymentToEnroll);\n        Player storage player = playersEnrolled[msg.sender];\n        require(!player.enrolled);\n        player.player = msg.sender;\n        player.enrolled = true;\n    }\n\n    function play(Weapon weapon) public payable enrolled returns(bool) {\n        Player storage player = playersEnrolled[msg.sender];\n        if (player.amount >= paymentToPlay) {\n            player.amount-=paymentToPlay;\n        } else {\n            require(msg.value == paymentToPlay);\n        }\n\n        uint totalGames = games.length;\n        if (totalGames == 0) {\n            newGame(weapon);\n            return false;\n        }\n        Game storage lastGame = games[totalGames-1];\n        if (lastGame.player2.player == address(0)) {\n            require(msg.sender != lastGame.player1.player);\n            finishGame(weapon, lastGame);\n            return true;\n        } else {\n            newGame(weapon);\n            return false;\n        }\n    }\n\n    function newGame(Weapon weapon) private {\n        Game memory game;\n        game.player1 = PlayerInGame(msg.sender, msg.value, weapon);\n        games.push(game);\n    }\n\n    function finishGame(Weapon weapon, Game storage game) private {\n        game.player2 = PlayerInGame(msg.sender, msg.value, weapon);\n        int result = whoWin(game);\n        uint amount = percentage(game.player1.bet + game.player2.bet, 90);\n        if (result > 0) {\n            playersEnrolled[game.player1.player].amount+=amount;\n        } else if (result < 0) {\n            playersEnrolled[game.player2.player].amount+=amount;\n        } else {\n            uint half = percentage(amount, 50);\n            playersEnrolled[game.player1.player].amount+=half;\n            playersEnrolled[game.player2.player].amount+=half;\n        }\n    }\n\n    function whoWin(Game memory game) private pure returns(int) {\n        return whoWin(game.player1.weapon, game.player2.weapon);\n    }\n\n    /**\n    Si retorna 0 hay empate\n    Si retorna 1 gano home\n    Si retorna -1 gano away\n     */\n    function whoWin(Weapon home, Weapon away) private pure returns(int) {\n        if (home == away) {\n            return 0;\n        }\n        if (home == Weapon.ROCK) {\n            if (away == Weapon.PAPER) {\n                return -1;\n            } else {\n                return 1;\n            }\n        }\n        if (home == Weapon.PAPER) {\n            if (away == Weapon.SCISSORS) {\n                return -1;\n            } else {\n                return 1;\n            }\n        }\n        if (home == Weapon.SCISSORS) {\n            if (away == Weapon.ROCK) {\n                return -1;\n            } else {\n                return 1;\n            }\n        }\n        return 0;\n    }\n\n    function percentage(uint value, uint percent) private pure returns(uint) {\n        return (value * percent) / 100;\n    }\n\n    function getAmount() public view returns(uint) {\n        return playersEnrolled[msg.sender].amount;\n    }\n\n    function redeemAmount() public enrolled payable {\n        Player storage player = playersEnrolled[msg.sender];\n        payable(msg.sender).transfer(player.amount);\n        player.amount = 0;\n    }\n\n    function isEnrolled() public view returns(bool) {\n        Player memory player = playersEnrolled[msg.sender];\n        return player.enrolled;\n    }\n\n    function getContractBalance() public onlyOwner view returns(uint) {\n        address contractAddress = address(this);\n        return contractAddress.balance;\n    }\n\n}\n",
  "sourcePath": "/Users/usuario/Desktop/Personal/RockPaperScissors/contracts/RockPaperScissors.sol",
  "compiler": {
    "name": "solc",
    "version": "0.8.7+commit.e28d00a7.Emscripten.clang"
  },
  "schemaVersion": "3.4.3",
  "updatedAt": "2021-09-08T20:26:31.857Z",
  "devdoc": {
    "kind": "dev",
    "methods": {
      "transferOwnership(address)": {
        "details": "Allows the current owner to transfer control of the contract to a newOwner.",
        "params": {
          "newOwner": "The address to transfer ownership to."
        }
      }
    },
    "version": 1
  },
  "userdoc": {
    "kind": "user",
    "methods": {},
    "version": 1
  }
}